S012000074696D65725F746573742E73726563D2
S113000019C028C027C026C025C024C023C022C0D0
S113001021C020C01FC03CC01DC01CC01BC01AC0D2
S113002019C018C017C016C015C014C013C012C020
S113003011C010C011241FBECFEFD4E0DEBFCDBF6E
S113004021E0A0E0B1E001C01D92A230B207E1F7C7
S113005033D045C0D5CFF89410928000E1E8F0E0A9
S11300601082109285001092840081E19AE79093A7
S11300708900809388008081886080838081846087
S11300808083EFE6F0E08081826080837894089535
S11300901F920F920FB60F9211248F939F9381E0BA
S11300A090E090930101809300019F918F910F90B4
S11300B00FBE0F901F90189581E084B9CCDF80911A
S11300C000019091010181309105E9F796B185B164
S11300D0892B85B91092010110920001F0CFF89498
S10500E0FFCF4C
S9030000FC
