:1000000019C028C027C026C025C024C023C022C0D4
:1000100021C020C01FC01EC01DC01CC01BC01AC0F4
:1000200019C018C017C016C015C014C013C012C024
:1000300011C010C011241FBECFEFD4E0DEBFCDBF72
:1000400021E0A0E0B1E001C01D92A430B207E1F7C9
:1000500030D044C0D5CF80E480937C0087E8809383
:100060007A000895ECE7F0E09081987F8170892B09
:100070008083EAE7F0E0808180648083808186FD70
:10008000FDCF809178009091790008959093C500FC
:100090008093C40088E18093C1008EE08093C20009
:1000A0000895E0ECF0E0908195FFFDCF8093C600CD
:1000B000089583E390E0EADFCEDF80E0D3DF909322
:1000C000030180930201EDDF2FE788E391E02150E7
:1000D00080409040E1F700C00000EFCFF894FFCFE0
:00000001FF
